:040000008031B02873
:100008007E14803100308600003087002000911D6A
:100018000E280F28AE282400951F13281428192805
:10002800951311082000B601AA28141D1C281D28A4
:100038004328141C202821283928941A24282528E4
:100048003928110820003308320203182C282D28DB
:1000580035283208203E86008701010824009100D7
:10006800AA28FF3024009100AA2801302000B207F6
:100078003308320203184128422835282D28141C39
:1000880046284728AA281108F200941E4C284D2813
:10009800AA28932855307206031D53285428AA28E5
:1000A8000130B600AA28AA307206031D5C285D2814
:1000B80016280230B600B501B401AA287208B400A7
:1000C8003508373E86008701720881000130B50780
:1000D80002303402031C71287228162811303402A9
:1000E800031C77287828792816280330B600AA2810
:1000F800103035020318812882288A283508373EAF
:1001080086008701720881000130B507340835027E
:10011800031C8F289028AA280130B0001628200038
:100128003608F000F1017108003A03199C28AA2842
:100138007008003A03194E28013A03195728033A60
:1001480003196228013A03197C28AA2824001516E5
:10015800200091117E1009008031B22886310226D4
:100168008031F700863103268031F8008631042675
:100178008031F900863105268031FA00203084006C
:100188000030850027308531FC2580317E10200025
:1001980084318E2C2100A601AF01DB2821002F0815
:1001A800373E860087010108A6070130AF07200007
:1001B8003408FF3ED700FF3003180030D800580835
:1001C800803A803C031DEB28570821002F02031CAE
:1001D800EE28EF28D22820003408363E8600870112
:1001E8000108210026060319FA28FB28FE2820000A
:1001F800B301302B200038082100B7002000B101DE
:1002080021003708031909290A2917290330370259
:1002180003180F291029172937082000A000A10169
:100228000230B3002F2B03303702031C1C291D2971
:10023800382906303702031822292329382985311D
:100248006B258031003A031D2A292B293329FF30D9
:100258002000A000FF30A1000230B3002F2B2100A6
:1002680037082000A000132908303706031D3D2950
:100278003E29522985316B258031003A031D4529D5
:1002880046294E29FF302000A000FF30A10002308F
:10029800B3002F2B08302000A0001329093037069F
:1002A800031D572958296C2985316B258031003A5F
:1002B800031D5F2960296829FF302000A000FF3056
:1002C800A1000230B3002F2B09302000A000132911
:1002D80006303706031D712972298A2985316B2555
:1002E8008031003A031D79297A298229FF302000BC
:1002F800A000FF30A1000230B3002F2B06302000F1
:10030800A0000130A1000230B3002F2B07303706C0
:10031800031D8F299029AA2985316B258031003A40
:10032800031D97299829A029FF302000A000FF303D
:10033800A1000230B3002F2B07302000A0000130AD
:10034800A1000230B3000130B1002F2B1530370661
:10035800031DAF29B029CC29033020003402031C27
:10036800B629B729C92939082100A0002003031993
:10037800BE29C12922000C15C32922000C111530F1
:100388002000A0000130A10014292000B3012F2B68
:1003980016303706031DD129D229FF29063020003F
:1003A800A0001630A1000130A200A3012100AB017A
:1003B800AC01B3013308203E860087010108200004
:1003C800D700D80157082100AB07200058082100A2
:1003D800AC3D0130B30704303302031CF429F5297E
:1003E800DE292C082000A40021002B082000A500ED
:1003F8000630B3002F2B17303706031D042A052AB1
:10040800222A85316B258031003A031D0C2A0D2ADA
:10041800152AFF302000A000FF30A1000230B300F1
:100428002F2B05302000A0001730A100AB30A20010
:10043800A301C730A4000530B3002F2B3A3037068C
:10044800031D272A282A8A2A85316B258031003AFC
:10045800031D2F2A302A382AFF302000A000FF3041
:10046800A1000230B3002F2B033020003402031CFC
:100478003E2A3F2AC92939082100A1002108031D65
:10048800462A472A862A06308531B02580317408E5
:100498002100AA007308A90007302000A0003A3004
:1004A800A1000130A20021002A082000A300210099
:1004B80029082000A4002100AD01AE01B4010530D7
:1004C8003402031C682A692A6A2A7C2A3408203ED6
:1004D8008600870101082000D700D80157082100AD
:1004E800AD07200058082100AE3D0130B407632A4B
:1004F8002E082000A50021002D082000A6000730A6
:10050800B3002F2B3A302000A00013293B303706C8
:10051800031D8F2A902ABD2A043020003402031CB0
:10052800962A972AC92939082100A20020003408F0
:10053800FC3E2100A3003A30A40024082000C70094
:10054800210023082000C8002100220884310B2440
:1005580080312100A5003B302000A00021002508A3
:10056800031DB72AB92A0130BA2A00302000A10099
:1005780014293C303706031DC22AC32AC92906306C
:1005880020003406031DC92ACA2AC92939082100AE
:10059800B20048303202031CD22AD32AC9294C306F
:1005A80032020318D82AD92AC929B0302000C70036
:1005B800B130C80021003208833131238031003A3C
:1005C8000319E72AE82A0F2B07302000A0003C3047
:1005D800A1000130A200210030082000A300210062
:1005E80031082000A400A5012100A701B5010630AB
:1005F8003502031C002B012B022B0B2B3508203E48
:10060800860087010108A7070130B507FB2A2708DC
:100618002000A600832A07302000A0003C30A1005B
:10062800A201A301A401A5012100A801B601063079
:100638003602031C202B212B222B2B2B3608203E85
:10064800860087010108A8070130B6071B2B280878
:100658002000A600832AB20108002000D6008531B8
:10066800F32583318531CC258331200056358531FA
:1006780030258331003A0319422B432B9B2B003042
:10068800853130258331003A03194B2B4C2B9B2B9A
:100698008531CC25833103142000560D8531302552
:1006A8008331003A0319592B5A2B9B2B0130843183
:1006B800F12483312000CE0000308431F1248331CD
:1006C8002000CF008531E025833120004F08C90084
:1006D8000430C936890B6D2B4908CA00CB014E0876
:1006E800CC00CD01CC0ECD0EF030CD054C080F3925
:1006F800CD04F030CC054A084C04D2004B084D0418
:10070800D3004708860087015308CA005208C90069
:100718000430CA36C90C890B8D2B4908810048085A
:100728008600870152080F39810001300A2C853173
:10073800E02583314830200056060319A42BA52B49
:10074800092C8531CC258331903085313025833192
:10075800003A0319B02BB12B062C00308531302517
:100768008331003A0319B92BBA2B062C8531CC25D5
:1007780083319130853130258331003A0319C52BF7
:10078800C62B062C01308431F12483312000D0009F
:1007980000308431F12483312000D1008531E025F7
:1007A800833120005108C9000430C936890BD92B80
:1007B8004908CA00CB015008CC00CD01CC0ECD0EA3
:1007C800F030CD054C080F39CD04F030CC054A087F
:1007D8004C04D4004B084D04D50047088600870117
:1007E8005508CA005408C9000430CA36C90C890B18
:1007F800F92B4908810048088600870154080F39F9
:100808008100992B8531E0258331003008002000D4
:10081800CD007A08CC007908CB007808CA007708A0
:10082800C900D0018531F32584318531CC25843147
:1008380020004D35853130258431003A0319252CA7
:10084800262C3C2C01302000D000CE01362C470845
:100858004E07860087010108853130258431013033
:100868002000CE0748084E02031C3B2C3C2C2B2CA6
:100878008531E025843120005008031D442C452C87
:100888008B2CD1015108493E8600870101084D068D
:10089800031D4F2C502C512C822C8531F32584318B
:1008A8008531CC25843120005108493E86008701D6
:1008B8000135853130258431003A0319642C652CC3
:1008C8007F2C01302000D000CF01752C47084F073E
:1008D80086008701010885313025843101302000E8
:1008E800CF0748084F02031C7A2C7B2C6A2C8531D1
:1008F800E02584318B2C8531E025843101302000BE
:10090800D10704305102031C8A2C8B2C462C200062
:100918005008080078302100990023008E110E122B
:100928008E1221008E150E168E161A30890B9A2CEF
:1009380000322000DA018E1DA22CA32CA42C5A14FC
:100948000E1EA72CA82CA92CDA148E1EAC2CAD2CAC
:10095800AE2C5A155A08203ED900590885319025E1
:10096800843123000C1121000C1122000C116400A9
:10097800200030080319C12CC22CC92C8B138031DC
:10098800CE2084312000B0018B1731080319CD2CFB
:10099800CE2CBB2C33083202031CD32CD42CBB2CFA
:1009A800B601B501B401B301B201B001DB015B08C6
:1009B800373E8600870181015B08203E860087015B
:1009C80081010130DB0710305B02031CEC2CED2C9D
:1009D800DB2CB101BB2C8031B028F300F4012100DD
:1009E8000C16F5010310F40D21008C160530890B47
:1009F800FB2C000020000C1E022D032D042D741466
:100A080021008C120530890B072D00000130F507F5
:100A180008307502031C112D122DF62C73080319CA
:100A2800162D172D1A2D21000C121C2D21000C1625
:100A38000530890B1D2D000021008C160530890B0F
:100A4800232D000021008C120530890B292D000070
:100A580021000C1674080800F300F501F31F352D6A
:100A6800362D392D21000C163B2D21000C12053096
:100A7800890B3C2D000021008C160530890B422D76
:100A8800000021008C120310F30D0130F507083027
:100A98007502031C502D512D322D0C160530890B73
:100AA800532D000021008C160530890B592D0000AC
:100AB800031020000C1E03140030093DF40021002F
:100AC8008C120530890B662D00007408080002306E
:100AD800F5007B2D7508373E86008701010803194C
:100AE800762D772D792D00308F2D0130F5072000D8
:100AF8003408FF3EF300FF3003180030F400740898
:100B0800803A803C031D8A2D73087502031C8D2DC5
:100B18008E2D6E2D01300800F30023008E01210078
:100B28000E148E1410303C00A0001130A1001030BB
:100B38003D00A0001130A10073352400920036302A
:100B4800950001309600183097002000911121007F
:100B580091150B178B170800F600D03021009E0066
:100B68007608F5000230F535890BB72D7508013880
:100B78009D001A30890BBE2D003221009D149D184E
:100B8800C62DC72DC32D1C08F4001B08F300080050
:100B980021000C168C160530890BD02D0000210081
:100BA8000C120530890BD62D000021008C1205305F
:100BB800890BDC2D0000080021000C120530890B80
:100BC800E32D000021008C160530890BE92D00006B
:100BD80021000C160530890BEF2D000008002300BA
:100BE8000C1221000C168C1622000C128C12080014
:100BF800640080010131890BFD2D003448344934EB
:040C08004A344B34EB
:020000040001F9
:04000E00E43FFF3F8D
:00000001FF
