:08000000803102288731E42F52
:1004E000483449344A344B34640080010131890B6B
:1004F000752A003423000C1221000C168C162200E1
:100500000C128C12080021000C120530890B862A6F
:10051000000021008C160530890B8C2A0000210078
:100520000C160530890B922A0000080021000C16D9
:100530008C160530890B9A2A000021000C12053018
:10054000890BA02A000021008C120530890BA62AF5
:1005500000000800F300D03021009E007308F20074
:100560000230F235890BB12A720801389D001A3029
:10057000890BB82A003221009D149D18C02AC12A77
:10058000BD2A1C08F1001B08F000080023008E01A2
:1005900021000E148E1410303C00A0001130A10078
:1005A00010303D00A0001130A10040302400920026
:1005B00036309500013096001830970020009111D8
:1005C0002100911108000230F200F32A72085E3E09
:1005D0008600870101080319EE2AEF2AF12A00306C
:1005E000072B0130F20720005B08FF3EF000FF30D0
:1005F00003180030F1007108803A803C031D022B83
:1006000070087202031C052B062BE62A0130080035
:10061000F000F201F01F0D2B0E2B112B21000C16F8
:10062000132B21000C120530890B142B0000210024
:100630008C160530890B1A2B000021008C12031038
:10064000F00D0130F20708307202031C282B292B11
:100650000A2B0C160530890B2B2B000021008C1661
:100660000530890B312B0000031020000C1E0314F1
:100670000030093DF10021008C120530890B3E2B22
:10068000000071080800F000F10121000C16F201D1
:100690000310F10D21008C160530890B4D2B000045
:1006A00020000C1E542B552B562B711421008C123C
:1006B0000530890B592B00000130F2070830720217
:1006C000031C632B642B482B70080319682B692BC0
:1006D0006C2B21000C126E2B21000C160530890B9F
:1006E0006F2B000021008C160530890B752B000044
:1006F00021008C120530890B7B2B000021000C1689
:10070000710808007830210099008231C6228331B7
:1007100023000C1121000C1122000C112000911D4E
:10072000922B932B962B843143248331200058083D
:1007300003199B2B9C2B8E2B5A085902031CA12BAF
:10074000A22B8E2B24009419A62BA72B8E2B141EC4
:10075000AA2BAB2B8E2B2000C601C70113304702FA
:10076000883003194602031CB62BB72BB82BC52BB8
:100770000130C6070030C73D1330470288300319E7
:100780004602031CC42BC52BB82B01008E2B8031D5
:100790000228F90021002308F8002208F7002108A8
:1007A000F6002008F500FC0182317A228331823183
:1007B000962283317935833108238331003A031936
:1007C000E22BE32BF72B0130FC00FA01F12B73082D
:1007D0007A078600870101088331082383310130BD
:1007E000FA0774087A02031CF62BF72BE72B8231E9
:1007F000832283317C08031DFE2BFF2B412CFD013E
:100800007D08753E8600870101087906031D092CC5
:100810000A2C0B2C392C82317A2283318231962298
:1008200083317D08753E86008701013583310823B9
:100830008331003A03191D2C1E2C362C0130FC008C
:10084000FB012C2C73087B0786008701010883318C
:10085000082383310130FB0774087B02031C312C11
:10086000322C222C823183228331412C823183220B
:1008700083310130FD0704307D02031C402C412CE4
:10088000002C7C0808002400951F472C482C4D2C78
:10089000951311082000DD01DB2C141D502C512C68
:1008A000712C141C542C552C6D2C941A582C592C2A
:1008B0006D2C110820005A0859020318602C612C75
:1008C000692C5908483E86008701010824009100E0
:1008D000DB2CFF3024009100DB2C01302000D907F5
:1008E000DB2C141C742C752CDB2C11082000C5008B
:1008F0002400941E7C2C7D2CDB2CC42C553045060A
:10090000031D832C842CDB2C0130DD00DB2CAA3072
:100910004506031D8C2C8D2C4A2C0230DD00DC0199
:10092000DB01DB2C4508DB005C085E3E86008701AE
:10093000450881000130DC0702305B02031CA12C5A
:10094000A22C4A2C11305B02031CA72CA82CA92C2A
:100950004A2C0330DD00DB2C10305C020318B12C74
:10096000B22CBA2C5C085E3E8600870145088100E7
:100970000130DC075B085C02031CBF2CC02CDB2CA5
:100980008531BA2584314A2C20005D08C300C4019A
:100990004408003A0319CD2CDB2C4308003A031914
:1009A0007E2C013A0319872C033A0319922C013A41
:1009B0000319AC2CDB2C2400151620009111080023
:1009C0002000A80082317A2284318231962284313B
:1009D00020002835833108238431003A0319F12C93
:1009E000F22C4A2D0030833108238431003A031958
:1009F000FA2CFB2C4A2D82319622843103142000DC
:100A0000280D833108238431003A0319082D092D5C
:100A10004A2D01308331432384312000A00000306F
:100A20008331432384312000A10082318322843129
:100A300020002108F5000430F536890B1C2D7508BF
:100A4000F600F7012008F800F901F80EF90EF03071
:100A5000F90578080F39F904F030F80576087804BC
:100A6000A40077087904A50073088600870125088B
:100A7000F6002408F5000430F636F50C890B3C2D01
:100A80007508810074088600870124080F398100E9
:100A90000130B92D8231832284314830200028066C
:100AA0000319532D542DB82D823196228431903064
:100AB000833108238431003A03195F2D602DB52D51
:100AC0000030833108238431003A0319682D692DE1
:100AD000B52D8231962284319130833108238431BF
:100AE000003A0319742D752DB52D01308331432340
:100AF00084312000A2000030833143238431200060
:100B0000A30082318322843120002308F5000430C1
:100B1000F536890B882D7508F600F7012208F800D4
:100B2000F901F80EF90EF030F90578080F39F904DB
:100B3000F030F80576087804A60077087904A70055
:100B40007308860087012708F6002608F5000430A0
:100B5000F636F50C890BA82D7508810074088600FF
:100B6000870126080F398100482D82318322843184
:100B7000003008002000B101BA01C72D20003A085A
:100B80005E3E860087010108B1070130BA075B08A5
:100B9000FF3EA900FF3003180030AA002A08803A5F
:100BA000803C031DD52D29083A02031CD82DD92DD0
:100BB000BE2D20005B085D3E8600870101083106DE
:100BC0000319E32DE42DE62DDA01E32F5F08C200BF
:100BD000D80142080319ED2DEE2DFA2D0330420203
:100BE0000318F32DF42DFA2D4208C800C901023074
:100BF000DA00E22F03304202031CFF2D002E1A2ED2
:100C0000063042020318052E062E1A2E8231E322E8
:100C10008531003A031D0D2E0E2E162EFF302000BA
:100C2000C800FF30C9000230DA00E22F200042087D
:100C3000C800F62D08304206031D1F2E202E342E2C
:100C40008231E3228531003A031D272E282E302ED3
:100C5000FF302000C800FF30C9000230DA00E22F68
:100C600008302000C800F62D09304206031D392E39
:100C70003A2E4E2E8231E3228531003A031D412E59
:100C8000422E4A2EFF302000C800FF30C90002303B
:100C9000DA00E22F09302000C800F62D06304206A7
:100CA000031D532E542E6C2E8231E3228531003ADF
:100CB000031D5B2E5C2E642EFF302000C800FF3029
:100CC000C9000230DA00E22F06302000C8000130EF
:100CD000C9000230DA00E22F07304206031D712EF0
:100CE000722E8C2E8231E3228531003A031D792E3B
:100CF0007A2E822EFF302000C800FF30C90002305B
:100D0000DA00E22F07302000C8000130C9000230AD
:100D1000DA000130D800E22F15304206031D912E73
:100D2000922EAE2E03305B02031C972E982EAC2E13
:100D30006008AB002B03031D9E2E9F2EA22E2200C7
:100D40000C15A42E22000C1115302000C800013013
:100D5000C9000230DA00E22FDA01E22F1630420633
:100D6000031DB32EB42ED82E0630C8001630C9008D
:100D70000130CA00CB01B601B701BE013E08483EB2
:100D8000860087010108A900AA012908B6072A08D8
:100D9000B73D0130BE0704303E02031CD02ED12ED9
:100DA000BE2E3708CC003608CD000630DA00E22F20
:100DB00017304206031DDD2EDE2EFB2E8231E3228C
:100DC0008531003A031DE52EE62EEE2EFF30200081
:100DD000C800FF30C9000230DA00E22F05302000E1
:100DE000C8001730C900AB30CA00CB01C730CC00F7
:100DF0000530DA00E22F3A304206031D002F012FA2
:100E0000542F8231E3228531003A031D082F092F28
:100E1000112FFF302000C800FF30C9000230DA0077
:100E2000E22F033020005B02031C172F182FAC2E7B
:100E30006008AC002C08031D1E2F1F2F512F0630F9
:100E40008231AA22853171082000B5007008B400F3
:100E50000730C8003A30C9000130CA003508CB005D
:100E60003408CC00B801B901BF0105303F02031CB2
:100E70003A2F3B2F3C2F4A2F3F08483E86008701E0
:100E80000108A900AA012908B8072A08B93D0130BC
:100E9000BF07352F3908CD003808CE000730DA00FB
:100EA000E22F3A30C800F62D3B304206031D592F81
:100EB0005A2F7C2F04305B02031C5F2F602FAC2E57
:100EC0006008AD005B08FC3EAE006130AF002F084B
:100ED000F3002E08F4002D088331C923853120004A
:100EE000B0003B30C8003008031D772F792F013048
:100EF0007A2F0030C900F72D3C304206031D812FA8
:100F0000822FAC2E06305B06031D872F882FAC2E58
:100F10006008BD0048303D02031C8F2F902FAC2E7F
:100F20004C303D020318952F962FAC2E3B30F3002A
:100F30003C30F4003D088431E0248531003A031947
:100F4000A22FA32FC42F07302000C8003C30C900B7
:100F50000130CA003B08CB003C08CC00CD01B201F7
:100F6000C00106304002031CB62FB72FB82FC12F87
:100F70004008483E860087010108B2070130C007DB
:100F8000B12F3208CE004E2F07302000C8003C3071
:100F9000C900CA01CB01CC01CD01B301C1010630AA
:100FA0004102031CD42FD52FD62FDF2F4108483EF6
:100FB000860087010108B3070130C107CF2F33082E
:100FC000CE004E2FD90108002100823170228731D6
:100FD000A000823171228731A100823172228731D3
:100FE000A200823173228731A30048308400003090
:100FF0008500263082317422873120008331822B94
:020000040001F9
:04000E00E43FFF3F8D
:00000001FF
